{
  "_format": "hh-sol-artifact-1",
  "contractName": "FairPay",
  "sourceName": "contracts/chatpay.sol",
  "abi": [
    {
      "inputs": [],
      "stateMutability": "nonpayable",
      "type": "constructor"
    },
    {
      "inputs": [],
      "name": "HandlesAlreadySavedForRequestID",
      "type": "error"
    },
    {
      "inputs": [],
      "name": "InvalidKMSSignatures",
      "type": "error"
    },
    {
      "inputs": [],
      "name": "NoHandleFoundForRequestID",
      "type": "error"
    },
    {
      "anonymous": false,
      "inputs": [
        {
          "indexed": true,
          "internalType": "uint256",
          "name": "negotiationId",
          "type": "uint256"
        },
        {
          "indexed": true,
          "internalType": "address",
          "name": "candidate",
          "type": "address"
        }
      ],
      "name": "CandidateRangeSubmitted",
      "type": "event"
    },
    {
      "anonymous": false,
      "inputs": [
        {
          "indexed": true,
          "internalType": "uint256",
          "name": "requestID",
          "type": "uint256"
        }
      ],
      "name": "DecryptionFulfilled",
      "type": "event"
    },
    {
      "anonymous": false,
      "inputs": [
        {
          "indexed": true,
          "internalType": "uint256",
          "name": "negotiationId",
          "type": "uint256"
        },
        {
          "indexed": true,
          "internalType": "address",
          "name": "employer",
          "type": "address"
        }
      ],
      "name": "EmployerRangeSubmitted",
      "type": "event"
    },
    {
      "anonymous": false,
      "inputs": [
        {
          "indexed": true,
          "internalType": "uint256",
          "name": "negotiationId",
          "type": "uint256"
        },
        {
          "indexed": false,
          "internalType": "uint256",
          "name": "decryptionRequestId",
          "type": "uint256"
        }
      ],
      "name": "MatchCalculated",
      "type": "event"
    },
    {
      "anonymous": false,
      "inputs": [
        {
          "indexed": true,
          "internalType": "uint256",
          "name": "negotiationId",
          "type": "uint256"
        },
        {
          "indexed": false,
          "internalType": "bool",
          "name": "hasMatch",
          "type": "bool"
        },
        {
          "indexed": false,
          "internalType": "uint64",
          "name": "meetingPoint",
          "type": "uint64"
        }
      ],
      "name": "MatchRevealed",
      "type": "event"
    },
    {
      "anonymous": false,
      "inputs": [
        {
          "indexed": true,
          "internalType": "uint256",
          "name": "negotiationId",
          "type": "uint256"
        },
        {
          "indexed": true,
          "internalType": "address",
          "name": "employer",
          "type": "address"
        },
        {
          "indexed": true,
          "internalType": "address",
          "name": "candidate",
          "type": "address"
        },
        {
          "indexed": false,
          "internalType": "string",
          "name": "title",
          "type": "string"
        },
        {
          "indexed": false,
          "internalType": "uint256",
          "name": "deadline",
          "type": "uint256"
        }
      ],
      "name": "NegotiationCreated",
      "type": "event"
    },
    {
      "inputs": [
        {
          "internalType": "uint256",
          "name": "requestId",
          "type": "uint256"
        },
        {
          "internalType": "bytes",
          "name": "cleartexts",
          "type": "bytes"
        },
        {
          "internalType": "bytes",
          "name": "decryptionProof",
          "type": "bytes"
        }
      ],
      "name": "callbackRevealMatch",
      "outputs": [
        {
          "internalType": "bool",
          "name": "",
          "type": "bool"
        },
        {
          "internalType": "uint64",
          "name": "",
          "type": "uint64"
        }
      ],
      "stateMutability": "nonpayable",
      "type": "function"
    },
    {
      "inputs": [
        {
          "internalType": "address",
          "name": "_candidate",
          "type": "address"
        },
        {
          "internalType": "string",
          "name": "_title",
          "type": "string"
        },
        {
          "internalType": "uint256",
          "name": "_deadlineDuration",
          "type": "uint256"
        }
      ],
      "name": "createNegotiation",
      "outputs": [
        {
          "internalType": "uint256",
          "name": "",
          "type": "uint256"
        }
      ],
      "stateMutability": "nonpayable",
      "type": "function"
    },
    {
      "inputs": [
        {
          "internalType": "uint256",
          "name": "negotiationId",
          "type": "uint256"
        }
      ],
      "name": "getDecryptionRequestId",
      "outputs": [
        {
          "internalType": "uint256",
          "name": "",
          "type": "uint256"
        }
      ],
      "stateMutability": "view",
      "type": "function"
    },
    {
      "inputs": [
        {
          "internalType": "uint256",
          "name": "negotiationId",
          "type": "uint256"
        }
      ],
      "name": "getMatchResult",
      "outputs": [
        {
          "internalType": "bool",
          "name": "hasMatch",
          "type": "bool"
        },
        {
          "internalType": "uint64",
          "name": "currentMeetingPoint",
          "type": "uint64"
        }
      ],
      "stateMutability": "view",
      "type": "function"
    },
    {
      "inputs": [
        {
          "internalType": "uint256",
          "name": "negotiationId",
          "type": "uint256"
        }
      ],
      "name": "getNegotiationState",
      "outputs": [
        {
          "internalType": "enum FairPay.NegotiationState",
          "name": "",
          "type": "uint8"
        }
      ],
      "stateMutability": "view",
      "type": "function"
    },
    {
      "inputs": [
        {
          "internalType": "uint256",
          "name": "negotiationId",
          "type": "uint256"
        }
      ],
      "name": "getNegotiationSummary",
      "outputs": [
        {
          "components": [
            {
              "internalType": "uint256",
              "name": "negotiationId",
              "type": "uint256"
            },
            {
              "internalType": "address",
              "name": "employer",
              "type": "address"
            },
            {
              "internalType": "address",
              "name": "candidate",
              "type": "address"
            },
            {
              "internalType": "string",
              "name": "title",
              "type": "string"
            },
            {
              "internalType": "enum FairPay.NegotiationState",
              "name": "state",
              "type": "uint8"
            },
            {
              "internalType": "uint256",
              "name": "createdAt",
              "type": "uint256"
            },
            {
              "internalType": "uint256",
              "name": "deadline",
              "type": "uint256"
            },
            {
              "internalType": "bool",
              "name": "isMatchCalculated",
              "type": "bool"
            },
            {
              "internalType": "uint256",
              "name": "decryptionRequestId",
              "type": "uint256"
            },
            {
              "internalType": "bool",
              "name": "hasMatch",
              "type": "bool"
            },
            {
              "internalType": "uint64",
              "name": "meetingPoint",
              "type": "uint64"
            }
          ],
          "internalType": "struct FairPay.NegotiationSummary",
          "name": "",
          "type": "tuple"
        }
      ],
      "stateMutability": "view",
      "type": "function"
    },
    {
      "inputs": [],
      "name": "getTotalNegotiations",
      "outputs": [
        {
          "internalType": "uint256",
          "name": "",
          "type": "uint256"
        }
      ],
      "stateMutability": "view",
      "type": "function"
    },
    {
      "inputs": [
        {
          "internalType": "address",
          "name": "user",
          "type": "address"
        }
      ],
      "name": "getUserNegotiations",
      "outputs": [
        {
          "internalType": "uint256[]",
          "name": "",
          "type": "uint256[]"
        }
      ],
      "stateMutability": "view",
      "type": "function"
    },
    {
      "inputs": [
        {
          "internalType": "uint256",
          "name": "negotiationId",
          "type": "uint256"
        }
      ],
      "name": "isExpired",
      "outputs": [
        {
          "internalType": "bool",
          "name": "",
          "type": "bool"
        }
      ],
      "stateMutability": "view",
      "type": "function"
    },
    {
      "inputs": [
        {
          "internalType": "uint256",
          "name": "negotiationId",
          "type": "uint256"
        }
      ],
      "name": "isMatchResultReady",
      "outputs": [
        {
          "internalType": "bool",
          "name": "",
          "type": "bool"
        }
      ],
      "stateMutability": "view",
      "type": "function"
    },
    {
      "inputs": [
        {
          "internalType": "uint256",
          "name": "negotiationId",
          "type": "uint256"
        },
        {
          "internalType": "address",
          "name": "user",
          "type": "address"
        }
      ],
      "name": "isParticipant",
      "outputs": [
        {
          "internalType": "bool",
          "name": "",
          "type": "bool"
        }
      ],
      "stateMutability": "view",
      "type": "function"
    },
    {
      "inputs": [
        {
          "internalType": "uint256",
          "name": "",
          "type": "uint256"
        }
      ],
      "name": "matchFound",
      "outputs": [
        {
          "internalType": "bool",
          "name": "",
          "type": "bool"
        }
      ],
      "stateMutability": "view",
      "type": "function"
    },
    {
      "inputs": [
        {
          "internalType": "uint256",
          "name": "",
          "type": "uint256"
        }
      ],
      "name": "meetingPoint",
      "outputs": [
        {
          "internalType": "uint64",
          "name": "",
          "type": "uint64"
        }
      ],
      "stateMutability": "view",
      "type": "function"
    },
    {
      "inputs": [],
      "name": "negotiationCounter",
      "outputs": [
        {
          "internalType": "uint256",
          "name": "",
          "type": "uint256"
        }
      ],
      "stateMutability": "view",
      "type": "function"
    },
    {
      "inputs": [
        {
          "internalType": "uint256",
          "name": "",
          "type": "uint256"
        }
      ],
      "name": "negotiations",
      "outputs": [
        {
          "internalType": "uint256",
          "name": "negotiationId",
          "type": "uint256"
        },
        {
          "internalType": "address",
          "name": "employer",
          "type": "address"
        },
        {
          "internalType": "address",
          "name": "candidate",
          "type": "address"
        },
        {
          "internalType": "enum FairPay.NegotiationState",
          "name": "state",
          "type": "uint8"
        },
        {
          "internalType": "string",
          "name": "title",
          "type": "string"
        },
        {
          "internalType": "uint256",
          "name": "createdAt",
          "type": "uint256"
        },
        {
          "internalType": "uint256",
          "name": "deadline",
          "type": "uint256"
        },
        {
          "internalType": "euint64",
          "name": "employerMin",
          "type": "bytes32"
        },
        {
          "internalType": "euint64",
          "name": "employerMax",
          "type": "bytes32"
        },
        {
          "internalType": "euint64",
          "name": "candidateMin",
          "type": "bytes32"
        },
        {
          "internalType": "euint64",
          "name": "candidateMax",
          "type": "bytes32"
        },
        {
          "internalType": "ebool",
          "name": "hasMatch",
          "type": "bytes32"
        },
        {
          "internalType": "euint64",
          "name": "meetingPoint",
          "type": "bytes32"
        },
        {
          "internalType": "uint256",
          "name": "decryptionRequestId",
          "type": "uint256"
        }
      ],
      "stateMutability": "view",
      "type": "function"
    },
    {
      "inputs": [],
      "name": "protocolId",
      "outputs": [
        {
          "internalType": "uint256",
          "name": "",
          "type": "uint256"
        }
      ],
      "stateMutability": "pure",
      "type": "function"
    },
    {
      "inputs": [
        {
          "internalType": "uint256",
          "name": "negotiationId",
          "type": "uint256"
        },
        {
          "internalType": "externalEuint64",
          "name": "encryptedMin",
          "type": "bytes32"
        },
        {
          "internalType": "externalEuint64",
          "name": "encryptedMax",
          "type": "bytes32"
        },
        {
          "internalType": "bytes",
          "name": "inputProof",
          "type": "bytes"
        }
      ],
      "name": "submitCandidateRange",
      "outputs": [],
      "stateMutability": "nonpayable",
      "type": "function"
    },
    {
      "inputs": [
        {
          "internalType": "uint256",
          "name": "negotiationId",
          "type": "uint256"
        },
        {
          "internalType": "externalEuint64",
          "name": "encryptedMin",
          "type": "bytes32"
        },
        {
          "internalType": "externalEuint64",
          "name": "encryptedMax",
          "type": "bytes32"
        },
        {
          "internalType": "bytes",
          "name": "inputProof",
          "type": "bytes"
        }
      ],
      "name": "submitEmployerRange",
      "outputs": [],
      "stateMutability": "nonpayable",
      "type": "function"
    }
  ],
  "bytecode": "0x608060405234610194575f6060610014610198565b8281528260208201528260408201520152731364cbbf2cdf5032c47d8226a6f6fbd2afcdacac6060610044610198565b73687820221192c5b662b25367f70076a37bc79b6c815273848b0066793bcc60346da1f49049357399b8d595602082015273a02cda4ca3a71d7c46997716f4283aa851c288126040820152015273687820221192c5b662b25367f70076a37bc79b6c60018060a01b03195f5160206124e95f395f51905f525416175f5160206124e95f395f51905f525573848b0066793bcc60346da1f49049357399b8d59560018060a01b03195f5160206124a95f395f51905f525416175f5160206124a95f395f51905f525573a02cda4ca3a71d7c46997716f4283aa851c2881260018060a01b03195f5160206124c95f395f51905f525416175f5160206124c95f395f51905f5255731364cbbf2cdf5032c47d8226a6f6fbd2afcdacac60018060a01b03195f5160206124895f395f51905f525416175f5160206124895f395f51905f52556040516122bd90816101cc8239f35b5f80fd5b60405190608082016001600160401b038111838210176101b757604052565b634e487b7160e01b5f52604160045260245ffdfe60806040526004361015610011575f80fd5b5f5f3560e01c806303fed7c014611b23578063358480331461174b578063515224cf14610d0d5780636738344b14610cbf5780636fa24cf514610c90578063758d9b8914610c1157806384cc0a0d146109c65780638ff6ad901461048f5780639267cfc21461045b578063a1823be11461043e578063a6da259f1461043e578063b915aa76146103f8578063cfe3d27a1461031f578063d7a40c21146102e6578063d9548e53146102aa578063da1f12ab1461028d578063dcd906e1146101975763eb41c78e146100e0575f80fd5b34610194576020366003190112610194576001600160a01b03610101611cf1565b168152600360205260408120604051908160208254918281520190819285526020852090855b81811061017e575050508261013d910383611d55565b604051928392602084019060208552518091526040840192915b818110610165575050500390f35b8251845285945060209384019390920191600101610157565b8254845260209093019260019283019201610127565b80fd5b5034610194576020366003190112610194576004358152600160205260409020805460018201546001600160a01b0316916002810154600382016101da90611e13565b91600481015492600582015460068301546007840154600885015491600986015493600a87015495600b88015497600c0154986040519c8d9c8d5260208d01526001600160a01b03811660408d015260608c019060a01c60ff169061023e91611d2b565b60808b016101c090526101c08b0161025591611d07565b9860a08b015260c08a015260e08901526101008801526101208701526101408601526101608501526101808401526101a08301520390f35b503461019457806003193601126101945760206040516127118152f35b503461019457602036600319011261019457600560406020926004356102d282548210611eb3565b815260018452200154421015604051908152f35b503461019457602036600319011261019457600c604060209260043561030e82548210611eb3565b815260018452200154604051908152f35b5034610194576020366003190112610194576004359061034181548310611eb3565b818152600160205260ff600260408320015460a01c1660058110156103e45760040361039f5781815260046020908152604080832054938352600582529182902054825160ff9094161515845267ffffffffffffffff169083015290f35b60405162461bcd60e51b815260206004820152601660248201527f4d61746368206e6f742072657665616c656420796574000000000000000000006044820152606490fd5b634e487b7160e01b82526021600452602482fd5b50346101945760203660031901126101945760ff6002604060209360043561042282548210611eb3565b81526001855220015460a01c1661043c6040518092611d2b565bf35b503461019457806003193601126101945760209054604051908152f35b50346101945760203660031901126101945767ffffffffffffffff6040602092600435815260058452205416604051908152f35b5034610194576060366003190112610194576004359060243567ffffffffffffffff81116109c2576104c5903690600401611dbd565b9060443567ffffffffffffffff81116109c2576104e6903690600401611dbd565b8382526002602052604082205491805483101561097d5782815260016020526040812094600286019260ff845460a01c16600581101561096957600303610924578183527f878245876662ba28a480c5ea71726db859fb50222b0a3d7cbbc21cfa336faf01602052604083205415610915578183527f878245876662ba28a480c5ea71726db859fb50222b0a3d7cbbc21cfa336faf0160205260408320906040518083602082955493848152019087526020872092875b8181106108fc5750506105b292500383611d55565b8651918260200192836020116108e8576040018093116108d45760209261066a9261065887869461060486808f60405198818a92519d8e91019d8e8585015e8201908382015203018088520186611d55565b61067c6001600160a01b037f9e7b61f58c47dc699ac88507c4f5bb9f121c03808c5676a8078fe583e4649703541694604051988997889687956378542ead60e01b87526060600488015260648701906121c1565b85810360031901602487015290611d07565b83810360031901604485015290611d07565b03925af19081156108c957849161088f575b501561088057817f1af0453083661051f6e56e5c070792320652e612154bf9af8637bb1e7655b99d8480a260408680518101031261087c576106d1604091611f77565b9501519567ffffffffffffffff8716918288036108785785845260046020526040842060ff1981541660ff891515161790558584526005602052604084208367ffffffffffffffff1982541617905583526002602052826040812055855f1461086d5761074260ff60015b166121f4565b600a8201555f5160206122915f395f51905f5254604051639cd07acb60e01b815260048101939093526001600160a01b03168260448186602094600560248401525af191821561084e578392610815575b50600b015550805460ff60a01b19167404000000000000000000000000000000000000000017905560408051831515815267ffffffffffffffff851660208201527f4061774490a21aa498f5c4c4ce988fb9018ed9541063ecebe2809120e7efa32d9190a260408051911515825267ffffffffffffffff929092166020820152f35b9091506020813d602011610846575b8161083160209383611d55565b81010312610842575190600b610793565b5f80fd5b3d9150610824565b6040513d85823e3d90fd5b634e487b7160e01b5f52602160045260245ffd5b61074260ff8461073c565b8380fd5b8280fd5b63cf6c44e960e01b8352600483fd5b90506020813d6020116108c1575b816108aa60209383611d55565b81010312610878576108bb90611f77565b5f61068e565b3d915061089d565b6040513d86823e3d90fd5b634e487b7160e01b85526011600452602485fd5b634e487b7160e01b86526011600452602486fd5b845483526001948501948794506020909301920161059d565b63d66ca67560e01b8352600483fd5b60405162461bcd60e51b815260206004820152600d60248201527f496e76616c6964207374617465000000000000000000000000000000000000006044820152606490fd5b634e487b7160e01b84526021600452602484fd5b60405162461bcd60e51b815260206004820152601660248201527f496e76616c6964206e65676f74696174696f6e204944000000000000000000006044820152606490fd5b5080fd5b503461019457602036600319011261019457600435816101406040516109eb81611d38565b8281528260208201528260408201526060808201528260808201528260a08201528260c08201528260e082015282610100820152826101208201520152610a3482548210611eb3565b8082526001602052604082209082839060028401549360ff8560a01c16936005851015610bfd57600485149081610bcb575b508154956001600160a01b0360018401541697600484015490600585015492819860038114958615610bbe575b50600c870154966040519b610aa78d611d38565b8c5260208c019c8d5260408c01926001600160a01b03168352600301610acc90611e13565b9260608c0193845260808c019a610baa5750895260a08a0192835260c08a0193845260e08a0194151585526101008a019586526101208a0196151587526101408a019767ffffffffffffffff1688526040519a8b9a60208c525160208c0152516001600160a01b031660408b0152516001600160a01b031660608a0152516080890161016090526101808901610b6191611d07565b965160a08901610b7091611d2b565b5160c08801525160e0870152511515610100860152516101208501525115156101408401525167ffffffffffffffff166101608301520390f35b634e487b7160e01b81526021600452602490fd5b995094508198945f610a93565b92509250818652600460205260ff604087205416918652600560205267ffffffffffffffff604087205416925f610a66565b634e487b7160e01b87526021600452602487fd5b503461019457604036600319011261019457600435602435906001600160a01b03821680920361087c5782604091610c4d602095548210611eb3565b81526001845220906001600160a01b036001830154168114918215610c79575b50506040519015158152f35b600201546001600160a01b03161490505f80610c6d565b50346101945760203660031901126101945760ff60406020926004358152600484522054166040519015158152f35b503461019457602036600319011261019457600435610ce082548210611eb3565b8152600160205260ff600260408320015460a01c16906005821015610baa57602082600460405191148152f35b503461084257610d1c36611cb5565b919290610d2b5f548610611eb3565b845f52600160205260405f2090600282019485546001600160a01b03811633036117065760a01c60ff166005811015610859576001036116c157610d8c610d9a92610d92600996610d8160058801544210611eff565b610d8c368a85611d77565b90611f84565b963691611d77565b92610da53082612092565b610daf3085612092565b600882015501557402000000000000000000000000000000000000000060ff60a01b1982541617905533817fef9d80981eb4ba4a22820a0969b48932fdad0d6c3ce3da37d4ea127e332a31d35f80a3610e0a5f548210611eb3565b805f52600160205260405f206002810160ff815460a01c1660058110156108595760020361167c57610e4160058301544210611eff565b60088201918254610e58600783019182549061210d565b906006830194855490610e71600986019283549061210d565b841561166b575b8015611658575b60209060646001600160a01b035f5160206122915f395f51905f525416965f604051988994859363d99882d560e01b8552600485015260248401528160448401525af1938415611477575f94611624575b50610edb3085612092565b86549681548815611614575b8015611602575b60209060646001600160a01b035f5160206122915f395f51905f5254169a5f6040519c8d948593631391547f60e01b8552600485015260248401528160448401525af1978815611477575f986115cb575b50906064602092549154985f6001600160a01b035f5160206122915f395f51905f5254166040519b8c958694637702dcff60e01b86526004860152602485015260448401525af1958615611477575f96611596575b506020906064610fa7845483549061210d565b93549154935f6001600160a01b035f5160206122915f395f51905f5254166040519687958694637702dcff60e01b86526004860152602485015260448401525af1908115611477575f91611564575b506110013086612092565b61100b3082612092565b808515611554575b15611542575b60209060646001600160a01b035f5160206122915f395f51905f525416965f604051988994859363022f65e760e31b8552600485015260248401528160448401525af18015611477575f90611510575b5f945080156114fe575b60209060646001600160a01b035f5160206122915f395f51905f5254169160405197889384926348fcc7ff60e11b8452600484015260016024840152600160f81b60448401525af18015611477575f906114cc575b5f94506110d53082612092565b60206110df612242565b9160646001600160a01b035f5160206122915f395f51905f525416916040519889938492637702dcff60e01b845288600485015260248401528660448401525af1948515611477575f95611496575b5061113a903090612092565b6111443085612092565b80600a83015583600b8301556040519361115f606086611d55565b60028552602085019160403684378551156114825782528451600110156114825760408501527f878245876662ba28a480c5ea71726db859fb50222b0a3d7cbbc21cfa336faf0054936001600160a01b037f9e7b61f58c47dc699ac88507c4f5bb9f121c03808c5676a8078fe583e46497005416803b15610842575f6040518092637d6e912360e11b82526020600483015281838161120160248201896121c1565b03925af1801561147757611462575b50866001600160a01b037f9e7b61f58c47dc699ac88507c4f5bb9f121c03808c5676a8078fe583e46497025416803b156109c257816040518092633263b83b60e01b825289600483015260606024830152818381611271606482018a6121c1565b6308ff6ad960e41b604483015203925af180156114575761143e575b508590527f878245876662ba28a480c5ea71726db859fb50222b0a3d7cbbc21cfa336faf01602052604087205461142f578487527f878245876662ba28a480c5ea71726db859fb50222b0a3d7cbbc21cfa336faf016020526040872090519167ffffffffffffffff831161141b5768010000000000000000831161141b5781548383558084106113f5575b5090875260208720875b8381106113e157505050507f878245876662ba28a480c5ea71726db859fb50222b0a3d7cbbc21cfa336faf00545f1981146108e8579183600c7fdea9fcf34bdee7031a9edc1adb989a600ea5132fad4d158cab4a36f4185e556e95936001602096017f878245876662ba28a480c5ea71726db859fb50222b0a3d7cbbc21cfa336faf00550155818652600283528460408720557403000000000000000000000000000000000000000060ff60a01b19825416179055604051908152a280f35b600190602084519401938184015501611322565b8289528360208a2091820191015b8181106114105750611318565b898155600101611403565b634e487b7160e01b88526041600452602488fd5b633f06d22b60e01b8752600487fd5b8161144891611d55565b61145357865f61128d565b8680fd5b6040513d84823e3d90fd5b61146f9197505f90611d55565b5f955f611210565b6040513d5f823e3d90fd5b634e487b7160e01b5f52603260045260245ffd5b9094506020813d6020116114c4575b816114b260209383611d55565b8101031261084257519361113a61112e565b3d91506114a5565b506020843d6020116114f6575b816114e660209383611d55565b81010312610842575f93516110c8565b3d91506114d9565b506020611509612242565b9050611073565b506020843d60201161153a575b8161152a60209383611d55565b81010312610842575f9351611069565b3d915061151d565b50602061154d612242565b9050611019565b945061155e612242565b94611013565b90506020813d60201161158e575b8161157f60209383611d55565b8101031261084257515f610ff6565b3d9150611572565b9095506020813d6020116115c3575b816115b260209383611d55565b810103126108425751946020610f94565b3d91506115a5565b919097506020823d6020116115fa575b816115e860209383611d55565b81010312610842579051966064610f3f565b3d91506115db565b50602061160d612242565b9050610eee565b975061161e612242565b97610ee7565b9093506020813d602011611650575b8161164060209383611d55565b810103126108425751925f610ed0565b3d9150611633565b5060206116645f6121f4565b9050610e7f565b93506116765f6121f4565b93610e78565b60405162461bcd60e51b815260206004820152601960248201527f4e6f7420726561647920666f722063616c63756c6174696f6e000000000000006044820152606490fd5b60405162461bcd60e51b815260206004820152601a60248201527f456d706c6f796572206d757374207375626d69742066697273740000000000006044820152606490fd5b60405162461bcd60e51b815260206004820152601960248201527f4f6e6c792063616e6469646174652063616e207375626d6974000000000000006044820152606490fd5b3461084257606036600319011261084257611764611cf1565b60243567ffffffffffffffff811161084257611784903690600401611c87565b6001600160a01b036044939293359216908115611ade57338214611a8e5780151580611a83575b15611a3e57610e1083106119fa575f54926001840180851161191d575f55835f52600160205260405f2090848255600182016001600160a01b03331673ffffffffffffffffffffffffffffffffffffffff19825416179055600282018473ffffffffffffffffffffffffffffffffffffffff1982541617815560ff60a01b1981541690556003820167ffffffffffffffff84116119e65761184c8154611ddb565b601f81116119a1575b50835f601f821160011461193c575f91611931575b508460011b905f198660031b1c19161790555b42600483015542019081421161191d57602095859260057f8fec4d9c0e95417ef4f50017835b07a71ae4e15330aaea1604dcdbb58d55addc9301908155335f52600388526118ce8460405f20611f4b565b855f52600388526118e28460405f20611f4b565b5484604051926040845281604085015260608401375f60608684010152878201526060813395601f80199101168101030190a4604051908152f35b634e487b7160e01b5f52601160045260245ffd5b90508701358861186a565b5f8381526020812092508690601f198216905b8b8282106119875750501061196e575b5050600184811b01905561187d565b8801355f19600387901b60f8161c19169055878061195f565b84013585556001909401936020938401938993500161194f565b815f5260205f20601f860160051c810191602087106119dc575b601f0160051c01905b8181106119d15750611855565b5f81556001016119c4565b90915081906119bb565b634e487b7160e01b5f52604160045260245ffd5b606460405162461bcd60e51b815260206004820152602060248201527f446561646c696e65206d757374206265206174206c65617374203120686f75726044820152fd5b60405162461bcd60e51b815260206004820152601460248201527f496e76616c6964207469746c65206c656e6774680000000000000000000000006044820152606490fd5b5060648111156117ab565b60405162461bcd60e51b815260206004820152602260248201527f456d706c6f79657220616e642063616e646964617465206d757374206469666660448201526132b960f11b6064820152608490fd5b60405162461bcd60e51b815260206004820152601960248201527f496e76616c69642063616e6469646174652061646472657373000000000000006044820152606490fd5b3461084257611b3136611cb5565b919290611b405f548610611eb3565b845f52600160205260405f20906001600160a01b036001830154163303611c4257600282019460ff865460a01c16600581101561085957611bfd57610d8c611b9792610d92600796610d8160058801544210611eff565b92611ba23082612092565b611bac3085612092565b600682015501557401000000000000000000000000000000000000000060ff60a01b1982541617905533907fcde0d3b1114dd6ed3408e1856099e71b2246a0257b9bf3624788c4955c79ce595f80a3005b60405162461bcd60e51b815260206004820152601a60248201527f456d706c6f79657220616c7265616479207375626d69747465640000000000006044820152606490fd5b60405162461bcd60e51b815260206004820152601860248201527f4f6e6c7920656d706c6f7965722063616e207375626d697400000000000000006044820152606490fd5b9181601f840112156108425782359167ffffffffffffffff8311610842576020838186019501011161084257565b906080600319830112610842576004359160243591604435916064359067ffffffffffffffff821161084257611ced91600401611c87565b9091565b600435906001600160a01b038216820361084257565b805180835260209291819084018484015e5f828201840152601f01601f1916010190565b9060058210156108595752565b610160810190811067ffffffffffffffff8211176119e657604052565b90601f8019910116810190811067ffffffffffffffff8211176119e657604052565b92919267ffffffffffffffff82116119e65760405191611da1601f8201601f191660200184611d55565b829481845281830111610842578281602093845f960137010152565b9080601f8301121561084257816020611dd893359101611d77565b90565b90600182811c92168015611e09575b6020831014611df557565b634e487b7160e01b5f52602260045260245ffd5b91607f1691611dea565b9060405191825f825492611e2684611ddb565b8084529360018116908115611e915750600114611e4d575b50611e4b92500383611d55565b565b90505f9291925260205f20905f915b818310611e75575050906020611e4b928201015f611e3e565b6020919350806001915483858901015201910190918492611e5c565b905060209250611e4b94915060ff191682840152151560051b8201015f611e3e565b15611eba57565b60405162461bcd60e51b815260206004820152601a60248201527f4e65676f74696174696f6e20646f6573206e6f742065786973740000000000006044820152606490fd5b15611f0657565b60405162461bcd60e51b815260206004820152601b60248201527f4e65676f74696174696f6e20646561646c696e652070617373656400000000006044820152606490fd5b805490680100000000000000008210156119e65760018201808255821015611482575f5260205f200155565b5190811515820361084257565b611fd4916020916001600160a01b035f5160206122915f395f51905f525416905f60405180968195829463196d0b9b60e01b84526004840152336024840152608060448401526084830190611d07565b6005606483015203925af1908115611477575f91612060575b506001600160a01b037f9e7b61f58c47dc699ac88507c4f5bb9f121c03808c5676a8078fe583e46497005416803b1561084257604051630f8e573b60e21b815260048101839052336024820152905f908290604490829084905af1801561147757612056575090565b5f611dd891611d55565b90506020813d60201161208a575b8161207b60209383611d55565b8101031261084257515f611fed565b3d915061206e565b6001600160a01b037f9e7b61f58c47dc699ac88507c4f5bb9f121c03808c5676a8078fe583e4649700541691823b1561084257604051635ca4b5b160e11b815260048101929092526001600160a01b03166024820152905f908290604490829084905af18015611477576121035750565b5f611e4b91611d55565b9081156121b1575b801561219f575b60209060646001600160a01b035f5160206122915f395f51905f525416935f6040519586948593631d44e90160e21b8552600485015260248401528160448401525af1908115611477575f91612170575090565b90506020813d602011612197575b8161218b60209383611d55565b81010312610842575190565b3d915061217e565b5060206121aa612242565b905061211c565b90506121bb612242565b90612115565b90602080835192838152019201905f5b8181106121de5750505090565b82518452602093840193909201916001016121d1565b5f5160206122915f395f51905f5254604051639cd07acb60e01b815260048101929092526001600160a01b0316816044815f6020948160248401525af1908115611477575f91612170575090565b5f5160206122915f395f51905f5254604051639cd07acb60e01b81525f6004820152906001600160a01b0316816044815f602094600560248401525af1908115611477575f9161217057509056fe9e7b61f58c47dc699ac88507c4f5bb9f121c03808c5676a8078fe583e4649701a164736f6c634300081b000a9e7b61f58c47dc699ac88507c4f5bb9f121c03808c5676a8078fe583e46497039e7b61f58c47dc699ac88507c4f5bb9f121c03808c5676a8078fe583e46497019e7b61f58c47dc699ac88507c4f5bb9f121c03808c5676a8078fe583e46497029e7b61f58c47dc699ac88507c4f5bb9f121c03808c5676a8078fe583e4649700",
  "linkReferences": {},
  "deployedLinkReferences": {}
}